:020000040800F2
:10000000000002206D140008F1110008F71100082B
:10001000FD1100080312000809120008000000008A
:100020000000000000000000000000000F120008A7
:100030001D120008000000002B12000839120008F1
:10004000BD140008BD140008BD140008BD1400084C
:10005000BD140008BD140008BD140008BD1400083C
:10006000BD140008BD140008BD140008BD1400082C
:10007000BD140008BD140008BD140008BD1400081C
:10008000BD140008BD140008BD14000800000000E5
:10009000000000000000000000000000BD14000887
:1000A000BD140008BD140008BD140008BD140008EC
:1000B000BD140008BD140008BD140008BD140008DC
:1000C000BD140008BD140008BD140008BD140008CC
:1000D000BD140008BD140008BD1400080000000095
:1000E000BD140008BD140008BD1400080000000085
:1000F000000000000000000000000000BD14000827
:100100000000000045120008BD140008BD140008DE
:1001100000000000000000000000000000000000DF
:10012000BD14000859120008BD1400086D12000823
:10013000BD140008000000000000000000000000E6
:100140000000000000000000000000008112000814
:10015000BD14000895120008BD140008BD14000865
:10016000BD140008BD1400080000000000000000DD
:10017000000000000000000000000000000000007F
:1001800000000000BD140008000000000000000096
:08019000A9120008BD140008CB
:1001A00010B5054C237833B9044B13B10448AFF3B1
:1001B00000800123237010BD800500200000000096
:1001C000B883010808B5034B1BB103490348AFF3DB
:1001D000008008BD0000000084050020B8830108ED
:1001E00010F8012B11F8013B012A28BF9A42F7D0E1
:1001F000D01A7047034613F8012B002AFBD1181AB6
:1002000001387047000000000000000000000000FE
:1002100001F0FF01102A2BDB10F0070F08D010F8B7
:10022000013B013A8B422DD010F0070F42B3F6D1BB
:10023000F0B441EA012141EA014122F007047FF0D4
:1002400000070023F0E80256083C85EA010586EA2B
:10025000010685FA47F5A3FA87F586FA47F6A5FA67
:1002600087F68EB9EED1F0BC01F0FF0102F0070273
:1002700032B110F8013B013A83EA010313B1F8D11E
:100280000020704701387047002D06BF35460338FF
:10029000073815F0010F07D1013015F4807F02BF38
:1002A000013015F4C03F0130F0BC0138704700BF89
:1002B00081F0004102E000BF83F0004330B54FEA17
:1002C00041044FEA430594EA050F08BF90EA020F84
:1002D0001FBF54EA000C55EA020C7FEA645C7FEA17
:1002E000655C00F0E2804FEA5454D4EB5555B8BF3A
:1002F0006D420CDD2C4480EA020281EA030382EAAB
:10030000000083EA010180EA020281EA0303362D3C
:1003100088BF30BD11F0004F4FEA01314FF4801C0F
:100320004CEA113102D0404261EB410113F0004F21
:100330004FEA03334CEA133302D0524263EB4303D8
:1003400094EA050F00F0A780A4F10104D5F1200E76
:100350000DDB02FA0EFC22FA05F2801841F10001D1
:1003600003FA0EF2801843FA05F359410EE0A5F1A5
:1003700020050EF1200E012A03FA0EFC28BF4CF0D6
:10038000020C43FA05F3C01851EBE37101F000458C
:1003900007D54FF0000EDCF1000C7EEB00006EEB99
:1003A0000101B1F5801F1BD3B1F5001F0CD3490823
:1003B0005FEA30004FEA3C0C04F101044FEA44527A
:1003C00012F5800F80F09A80BCF1004F08BF5FEA01
:1003D000500C50F1000041EB045141EA050130BDE1
:1003E0005FEA4C0C404141EB0101013C28BFB1F5F3
:1003F000801FE9D291F0000F04BF01460020B1FA3E
:1004000081F308BF2033A3F10B03B3F120020CDA10
:100410000C3208DD02F1140CC2F10C0201FA0CF0EE
:1004200021FA02F10CE002F11402D8BFC2F1200C53
:1004300001FA02F120FA0CFCDCBF41EA0C01904009
:10044000E41AA2BF01EB0451294330BD6FEA040452
:100450001F3C1CDA0C340EDC04F11404C4F120023D
:1004600020FA04F001FA02F340EA030021FA04F34F
:1004700045EA030130BDC4F10C04C4F1200220FAA6
:1004800002F001FA04F340EA0300294630BD21FAE4
:1004900004F0294630BD94F0000F83F4801306BFAA
:1004A00081F480110134013D4EE77FEA645C18BF9E
:1004B0007FEA655C29D094EA050F08BF90EA020F35
:1004C00005D054EA000C04BF1946104630BD91EA2D
:1004D000030F1EBF0021002030BD5FEA545C05D130
:1004E0004000494128BF41F0004130BD14F580046F
:1004F0003CBF01F5801130BD01F0004545F0FE41E3
:1005000041F470014FF0000030BD7FEA645C1ABF17
:10051000194610467FEA655C1CBF0B46024650EA4E
:10052000013406BF52EA033591EA030F41F400217A
:1005300030BD00BF90F0000F04BF0021704730B500
:100540004FF4806404F132044FF000054FF00001D5
:1005500050E700BF90F0000F04BF0021704730B596
:100560004FF4806404F1320410F0004548BF40426B
:100570004FF000013EE700BF42004FEAE2014FEAC0
:1005800031014FEA02701FBF12F07F4393F07F4F9B
:1005900081F06051704732F07F4208BF704793F09E
:1005A0007F4F04BF41F40021704730B54FF46074B1
:1005B00001F0004521F000411CE700BF50EA0102B4
:1005C00008BF704730B54FF000050AE050EA01025D
:1005D00008BF704730B511F0004502D5404261EBCD
:1005E00041014FF4806404F132045FEA915C3FF40E
:1005F000D8AE4FF003025FEADC0C18BF03325FEAAB
:10060000DC0C18BF033202EBDC02C2F1200300FA5B
:1006100003FC20FA02F001FA03FE40EA0E0021FA80
:1006200002F11444BDE600BF70B54FF0FF0C4CF46E
:10063000E06C1CEA11541DBF1CEA135594EA0C0F20
:1006400095EA0C0F00F0DEF82C4481EA030621EA5B
:100650004C5123EA4C5350EA013518BF52EA033596
:1006600041F4801143F4801338D0A0FB02CE4FF048
:100670000005E1FB02E506F00042E0FB03E54FF078
:100680000006E1FB03569CF0000F18BF4EF0010E70
:10069000A4F1FF04B6F5007F64F5407404D25FEA6C
:1006A0004E0E6D4146EB060642EAC62141EA55511F
:1006B0004FEAC52040EA5E504FEACE2EB4F1FD0C61
:1006C00088BFBCF5E06F1ED8BEF1004F08BF5FEADF
:1006D000500E50F1000041EB045170BD06F0004691
:1006E00046EA010140EA020081EA0301B4EB5C043E
:1006F000C2BFD4EB0C0541EA045170BD41F4801136
:100700004FF0000E013C00F3AB8014F1360FDEBF5A
:10071000002001F0004170BDC4F10004203C35DA36
:100720000C341BDC04F11404C4F1200500FA05F3B9
:1007300020FA04F001FA05F240EA020001F000425A
:1007400021F0004110EBD37021FA04F642EB0601D0
:100750005EEA430E08BF20EAD37070BDC4F10C04FA
:10076000C4F1200500FA04F320FA05F001FA04F2BE
:1007700040EA020001F0004110EBD37041F10001AA
:100780005EEA430E08BF20EAD37070BDC4F12005B5
:1007900000FA05F24EEA020E20FA04F301FA05F21D
:1007A00043EA020321FA04F001F0004121FA04F2C5
:1007B00020EA020000EBD3705EEA430E08BF20EA95
:1007C000D37070BD94F0000F0FD101F000464000CF
:1007D00041EB010111F4801F08BF013CF7D041EA51
:1007E000060195F0000F18BF704703F00046520055
:1007F00043EB030313F4801F08BF013DF7D043EA26
:100800000603704794EA0C0F0CEA135518BF95EADB
:100810000C0F0CD050EA410618BF52EA4306D1D162
:1008200081EA030101F000414FF0000070BD50EA81
:10083000410606BF1046194652EA430619D094EA0B
:100840000C0F02D150EA013613D195EA0C0F05D1F5
:1008500052EA03361CBF104619460AD181EA030149
:1008600001F0004141F0FE4141F470014FF0000001
:1008700070BD41F0FE4141F4780170BD70B54FF09C
:10088000FF0C4CF4E06C1CEA11541DBF1CEA13551C
:1008900094EA0C0F95EA0C0F00F0A7F8A4EB0504FE
:1008A00081EA030E52EA03354FEA013100F08880F5
:1008B0004FEA03334FF0805545EA131343EA1263BE
:1008C0004FEA022245EA111545EA10654FEA002673
:1008D0000EF000419D4208BF964244F1FD0404F52C
:1008E000407402D25B084FEA3202B61A65EB030588
:1008F0005B084FEA32024FF480104FF4002CB6EB45
:10090000020E75EB030E22BFB61A754640EA0C00C4
:100910005B084FEA3202B6EB020E75EB030E22BF04
:10092000B61A754640EA5C005B084FEA3202B6EB45
:10093000020E75EB030E22BFB61A754640EA9C0004
:100940005B084FEA3202B6EB020E75EB030E22BFD4
:10095000B61A754640EADC0055EA060E18D04FEA92
:10096000051545EA16754FEA06164FEAC30343EA32
:1009700052734FEAC2025FEA1C1CC0D111F4801FFF
:100980000BD141EA00014FF000004FF0004CB6E7F8
:1009900011F4801F04BF01430020B4F1FD0C88BF97
:1009A000BCF5E06F3FF6AFAEB5EB030C04BFB6EBA2
:1009B000020C5FEA500C50F1000041EB045170BD95
:1009C0000EF0004E4EEA113114EB5C04C2BFD4EBC2
:1009D0000C0541EA045170BD41F480114FF0000E46
:1009E000013C90E645EA060E8DE60CEA135594EAC2
:1009F0000C0F08BF95EA0C0F3FF43BAF94EA0C0FC5
:100A00000AD150EA01347FF434AF95EA0C0F7FF439
:100A100025AF104619462CE795EA0C0F06D152EA8D
:100A200003353FF4FDAE1046194622E750EA410671
:100A300018BF52EA43067FF4C5AE50EA41047FF482
:100A40000DAF52EA43057FF4EBAE12E74FF0FF3CE7
:100A500006E000BF4FF0010C02E000BF4FF0010CB8
:100A60004DF804CD4FEA410C7FEA6C5C4FEA430C31
:100A700018BF7FEA6C5C1BD001B050EA410C0CBF80
:100A800052EA430C91EA030F02BF90EA020F0020E2
:100A9000704710F1000F91EA030F58BF994208BF49
:100AA00090422CBFD8176FEAE37040F00100704706
:100AB0004FEA410C7FEA6C5C02D150EA013C07D15D
:100AC0004FEA430C7FEA6C5CD6D152EA033CD3D0A8
:100AD0005DF8040B704700BF8446104662468C46A2
:100AE0001946634600E000BF01B5FFF7B7FF0028D5
:100AF00048BF10F1000F01BD4DF808EDFFF7F4FFFE
:100B00000CBF012000205DF808FB00BF4DF808ED88
:100B1000FFF7EAFF34BF012000205DF808FB00BFAB
:100B20004DF808EDFFF7E0FF94BF012000205DF8CD
:100B300008FB00BF4DF808EDFFF7CEFF94BF012082
:100B400000205DF808FB00BF4DF808EDFFF7C4FF7B
:100B500034BF012000205DF808FB00BF4FEA410CC4
:100B60007FEA6C5C02D150EA013C0AD14FEA430CA7
:100B70007FEA6C5C02D152EA033C02D14FF00000E4
:100B800070474FF0010070474A0011D212F5001271
:100B900011D20DD56FF47873B3EB62520ED44FEAD5
:100BA000C12343F0004343EA505323FA02F0704755
:100BB0004FF00000704750EA013002D14FF0FF3093
:100BC00070474FF0000070474FEA4102B2F1E04336
:100BD00024BFB3F5001CDCF1FE5C0DD901F0004C24
:100BE0004FEAC0024CEA5070B2F1004F40EB830074
:100BF00008BF20F00100704711F0804F21D113F1A0
:100C00003872BCBF01F00040704741F480114FEAD8
:100C10005252C2F11802C2F1200C10FA0CF320FA61
:100C200002F018BF40F001004FEAC1234FEAD3237E
:100C300003FA0CFC40EA0C0023FA02F34FEA4303E8
:100C4000CCE77FEA625307D150EA01331EBF4FF071
:100C5000FE4040F44000704701F0004040F0FE408C
:100C600040F40000704700BF53B94AB9002908BFDB
:100C700000281CBF4FF0FF314FF0FF3000F0A4B947
:100C8000ADF1080C6DE904CE00F03CF8DDF804E0AD
:100C9000DDE9022304B0704738B500220023044682
:100CA0000D46FFF733FF28B920462946BDE83840F6
:100CB00000F00AB8204605F1004100F005F8404276
:100CC00061EB410138BD00BFD0B50C4B0022064698
:100CD0000F46FFF7A9FCFFF757FF0446FFF72AFC72
:100CE000074B0022FFF7A0FC02460B463046394670
:100CF000FFF7E2FAFFF748FF2146D0BD0000F03DC4
:100D00000000F0412DE9F047089D04468C46002B79
:100D100040F083808A42174647D9B2FA82F242B144
:100D2000C2F1200024FA00F09140974040EA010C03
:100D300094404FEA1748230CBCFBF8F61FFA87FED5
:100D400008FB16C143EA014306FB0EF1994209D99B
:100D5000FB1806F1FF3080F01981994240F21681AC
:100D6000023E3B445B1AA4B2B3FBF8F008FB10331D
:100D700044EA034400FB0EFEA64509D93C1900F1E4
:100D8000FF3380F00581A64540F2028102383C44E1
:100D900040EA0640A4EB0E0400261DB1D440002317
:100DA000C5E900433146BDE8F08702B9FFDEB2FA7B
:100DB00082F2002A50D1CB1B4FEA174E1FFA87F858
:100DC0000126B3FBFEFC210C0EFB1C3341EA034160
:100DD00008FB0CF38B4207D979180CF1FF3002D2D3
:100DE0008B4200F2E9808446C91AA3B2B1FBFEF03F
:100DF0000EFB101143EA014408FB00F8A04507D997
:100E00003C1900F1FF3302D2A04500F2D980184608
:100E1000A4EB080440EA0C40BFE78B4209D9002D3F
:100E200000F0B1800026C5E9000130463146BDE83A
:100E3000F087B3FA83F6002E4AD18B4202D3824266
:100E400000F2B880841A61EB030101208C46002D6A
:100E5000A8D0C5E9004CA5E7C2F1200320FA03F6AB
:100E6000974001FA02F04FEA174ED9403043030C85
:100E7000B1FBFEF61FFA87F80EFB161143EA014399
:100E800006FB08F1994204FA02F409D9FB1806F1AD
:100E9000FF3C80F08D80994240F28A80023E3B44C4
:100EA0005B1A81B2B3FBFEF00EFB103341EA034143
:100EB00000FB08F38B4207D9791800F1FF3C73D28D
:100EC0008B4271D902383944CB1A40EA064678E79A
:100ED000C6F1200C03FA06F422FA0CF31C4320FAA4
:100EE0000CF701FA06F34FEA144E21FA0CF11F43F6
:100EF0003B0CB1FBFEF91FFA84F80EFB191143EA13
:100F0000014109FB08FA8A4502FA06F200FA06F3E3
:100F100008D9611809F1FF3048D28A4546D9A9F1AC
:100F200002092144A1EB0A01BFB2B1FBFEF00EFBA6
:100F3000101147EA014700FB08F8B84507D9E7193F
:100F400000F1FF312ED2B8452CD90238274440EAAF
:100F50000940A7EB0807A0FB02894F45C646494652
:100F60001AD317D05DB1B3EB0E0267EB010707FA96
:100F70000CFCF2404CEA0202F740C5E900270026CB
:100F80003146BDE8F0872E4628460BE70646E9E6DF
:100F90001846FDE64345E5D2B8EB020E69EB0401C5
:100FA0000138DFE70846D2E760468DE78146B9E7BA
:100FB000664675E730464AE7ACF1020C394413E760
:100FC00002383C4424E700BF704700BF80B500AF43
:100FD00005E00A4814F0C0F864200CF04DFC02F063
:100FE00093F80346002BF4D1054814F0B5F802F04D
:100FF0009FF9044814F0B0F800BF80BD00840108D8
:10100000388401087084010880B5C0B000AF3B4649
:10101000184602F067F90346002B05D13B461946F6
:10102000064814F013F805E0054814F095F864201C
:101030000CF022FC0A200CF01FFCE8E78C8401086D
:10104000C884010880B582B000AF0CF0A3FB00F0AB
:1010500039F800237B60084B1B6B074A43F0800381
:101060001363054B1B6B03F080037B607B6800BF41
:101070000837BD4680BD00BF0038024080B582B051
:1010800000AF786078680CF0F7FB00BF0837BD460A
:1010900080BD80B500AF0CF0E3FB0346184680BD71
:1010A00080B582B000AF7860391D4FF6FF73012222
:1010B000034811F040FC7B6818460837BD4680BDE8
:1010C000EC75002080B594B000AF07F1200330220A
:1010D0000021184613F0B2FF07F10C0300221A603A
:1010E0005A609A60DA601A610023BB60274B1B6C60
:1010F000264A43F080531364244B1B6C03F0805347
:10110000BB60BB6800237B60214B1B68204A43F413
:10111000404313601E4B1B6803F440437B607B68B5
:1011200001233B624FF480337B620223BB634FF4A5
:101130008003FB6319233B64C0237B640223BB64ED
:101140000423FB6407F1200318460EF0D1FE03468A
:10115000002B01D000F01EF80F23FB6002233B613F
:1011600000237B614FF48053BB610023FB6107F1D7
:101170000C03032118460FF033F90346002B01D06E
:1011800000F008F800BF5037BD4680BD003802406F
:101190000070004080B400AF72B600BFFEE70000F0
:1011A00080B483B000AF00237B60104B5B6C0F4AB0
:1011B00043F4804353640D4B5B6C03F480437B60CA
:1011C0007B6800233B60094B1B6C084A43F080534B
:1011D0001364064B1B6C03F080533B603B6800BFFD
:1011E0000C37BD465DF8047B704700BF00380240F5
:1011F00080B400AFFEE780B400AFFEE780B400AF7C
:10120000FEE780B400AFFEE780B400AFFEE780B435
:1012100000AF00BFBD465DF8047B704780B400AFEF
:1012200000BFBD465DF8047B704780B400AF00BFCF
:10123000BD465DF8047B704780B500AF0CF0FCFA4A
:1012400000BF80BD80B500AF02480FF00FFD00BFAA
:1012500080BD00BFE873002080B500AF02480CF0ED
:1012600069FD00BF80BD00BF6C74002080B500AF79
:1012700002480CF05FFD00BF80BD00BF2873002056
:1012800080B500AF02480DF0D2FD00BF80BD00BFA9
:101290000085002080B500AF02480CF04BFD00BF78
:1012A00080BD00BF8873002080B500AF024811F0F8
:1012B00081F800BF80BD00BFCC74002080B400AFB7
:1012C00001231846BD465DF8047B704780B582B0A7
:1012D00000AF7860396013F079FE034616221A6079
:1012E0004FF0FF3318460837BD4680BD80B582B049
:1012F00000AF78604FF0FF317868FFF7E7FFFEE757
:1013000080B586B000AFF860B9607A6000237B6179
:101310000AE0AFF300800146BB685A1CBA60CAB24B
:101320001A707B6901337B617A697B689A42F0DBD2
:101330007B6818461837BD4680BD80B586B000AFC3
:10134000F860B9607A6000237B6109E0BB685A1CD1
:10135000BA601B781846FFF7A3FE7B6901337B61F7
:101360007A697B689A42F1DB7B6818461837BD467C
:1013700080BD80B483B000AF78604FF0FF33184673
:101380000C37BD465DF8047B704780B483B000AF76
:10139000786039603B684FF400525A600023184669
:1013A0000C37BD465DF8047B704780B483B000AF56
:1013B0007860012318460C37BD465DF8047B704702
:1013C00080B485B000AFF860B9607A600023184639
:1013D0001437BD465DF8047B7047000080B586B0C9
:1013E00000AF7860144A154BD31A7B617B693B616F
:1013F000134B1B68002B02D1114B124A1A60104B81
:101400001A687B6813443A699A4207D213F0DEFDEA
:1014100003460C221A604FF0FF3309E0084B1B68AB
:10142000FB60074B1A687B681344054A1360FB682E
:1014300018461837BD4680BD000002200004000099
:101440009C0500204089002080B400AF064BD3F8F3
:101450008830054A43F47003C2F8883000BFBD46A7
:101460005DF8047B704700BF00ED00E0DFF834D08A
:101470000D480E490E4A002302E0D458C4500433EC
:10148000C4188C42F9D30B4A0B4C002301E01360C3
:101490000432A242FBD3FFF7D7FF13F09DFD13F0F8
:1014A00089FD704700000220000000204405002054
:1014B000BC2C0208800500203C890020FEE780B497
:1014C00085B000AF78607B681A687B685B68D31A68
:1014D0007A689268B3FBF2F102FB01F29B1AFB609F
:1014E000FB6818461437BD465DF8047B7047000062
:1014F00080B588B000AF0123FB763B1D00221A6047
:101500005A609A60DA601A6100233B601C4B1B6BC7
:101510001B4A43F001031363194B1B6B03F00103D8
:101520003B603B680023BB600123FB600023FB6141
:1015300019E01449FA6913465B0013449B000B44FD
:1015400004331B687B600F49FA6913465B00134440
:101550009B000B441B683A1D114618460DF048F9D4
:10156000FB690133FB61FB69002BE2DD064907489B
:1015700000F016FAFB7E18462037BD4680BD00BF3E
:10158000003802400400002001160008F884010819
:1015900080B584B000AF0346FB710023FB73FB7979
:1015A000002B01D0002324E0FA79144913465B0094
:1015B00013449B000B441868FA79104913465B00EA
:1015C00013449B000B4404331B689BB219460DF077
:1015D00093FA03461846FA79084913465B00134408
:1015E0009B000B4408331B78984201D10123FB7305
:1015F000FB7B18461037BD4680BD00BF04000020AD
:1016000080B584B000AF78600023FB737B681B88D3
:10161000012B28D17B685B69194900209847034654
:10162000002B20D018E00023BB600CE0BB68DBB2CD
:101630001846FFF7ADFF03461946124800F0A0F820
:10164000BB680133BB60BB68002BEFDD0E4800F0C8
:1016500097F86420FFF712FD00F08CF90346002B89
:10166000E1D10123FB73FB7B83F00103DBB2002B91
:1016700002D0064800F084F800BF1037BD4680BD98
:1016800000850108088501080C85010810850108FE
:1016900080B483B000AF0123FB71054B01221A70A7
:1016A000FB7918460C37BD465DF8047B704700BFD8
:1016B000A005002080B500AF1B4B00221A721A4B08
:1016C00000225A72184B00221A74174B002283F81A
:1016D0009521154B002283F89621134B002283F8A5
:1016E0009721114B002283F894210F4B0F4AC3F826
:1016F00034240D4B0E4AC3F838240B4B0D4AC3F863
:101700003C24094B0C4AC3F84024074800F01EF85B
:101710000A490B4800F044F90A490B4800F040F927
:101720000123184680BD00BFAC6C002031180008B2
:1017300081180008D918000821190008351A000876
:1017400020850108A51A00082885010880B483B007
:1017500000AF78607B68002283F8E6227B68002275
:1017600083F8E5227B683F2283F8E4227B6800222D
:1017700083F8A42200BF0C37BD465DF8047B704798
:101780000FB480B584B000AF07F11C037B600D4B34
:10179000FB60FB6803F111007B68BA694FF480714C
:1017A00014F01CFCB860FB681878FB681133BA6849
:1017B000194602F02BFD00BF1037BD46BDE8804042
:1017C00004B07047AC6C002080B485B000AF786086
:1017D0000023FB8118E0FB897A6813441B787B7334
:1017E0007B7B002B14D07B7B602B05D97B7B7A2BFA
:1017F00002D87B7B203B7B73FB897A6813447A7B1E
:101800001A70FB890133FB81FB890F2BE3D900E0C0
:1018100000BFFB89102B05D1FB89013B7A6813447B
:1018200000221A7000BF1437BD465DF8047B704774
:1018300080B584B000AF0346FB710023FB600F4B03
:10184000BB60FB799AB2BB68B3F82C349A4201D3DF
:1018500000230EE0BB68D3F83024FB799B001344CF
:101860001B6800220021184614F082FB0346FB602F
:10187000FB6818461037BD4680BD00BFAC6C002029
:1018800080B584B000AF0346FB714FF00003FB60EE
:10189000104BBB60FB799AB2BB68B3F82C349A4208
:1018A00002D34FF000030DE0BB68D3F83024FB797E
:1018B0009B0013441B680021184614F083FA87ED3F
:1018C000030AFB6807EE903AB0EE670A1037BD4690
:1018D00080BD00BFAC6C002080B485B000AF034673
:1018E000FB710023FB600D4BBB60FB799AB2BB68B8
:1018F000B3F82C349A4201D3002308E0BB68D3F834
:101900003024FB799B0013441B68FB60FB6818467E
:101910001437BD465DF8047B704700BFAC6C0020F7
:1019200080B584B000AF03463960FB710023FB73C0
:101930000F4BBB60FB799AB2BB68B3F82C349A4268
:1019400001D3002310E0BB68D3F83024FB799B005F
:1019500013441B6819463868FEF742FC0346002B07
:1019600001D10123FB73FB7B18461037BD4680BDB8
:10197000AC6C002080B582B000AF084B7B607B6808
:101980001B78184602F010FC0346002B01D10123FE
:1019900000E0002318460837BD4680BDAC6C00202F
:1019A00080B586B000AF786039600123FB75204BAD
:1019B0003B613B69B3F8E8320F2B01D9002332E0D9
:1019C0003B69B3F8E832FB81FA8913469B00134464
:1019D0009B0003F53A733A69134404337968184657
:1019E00013F0C2FBFA89396913469B0013449B002C
:1019F0000B4403F53F733A681A60FA8913469B005B
:101A000013449B0003F53A733A69134404331846B0
:101A1000FFF7DAFE3B69B3F8E83201339AB23B696B
:101A2000A3F8E822FB7D18461837BD4680BD00BFED
:101A3000AC6C002080B584B000AF7860154BBB6003
:101A40001548FFF79DFE1548FFF79AFE0023FB603F
:101A500012E0FA6813469B0013449B0003F53A73A7
:101A6000BA68134404331846FFF78AFE0A48FFF7A2
:101A700087FEFB680133FB60BB68B3F8E8321A46A7
:101A8000FB689342E5DB0648FFF77AFE00BF10379C
:101A9000BD4680BDAC6C0020F0850108F4850108CE
:101AA0001486010880B58CB000AF78601023BB624B
:101AB0007B681B887B617B685B683B617B681B88FC
:101AC000002B03D14048FFF75BFE7AE07B69012BD6
:101AD00009DD3B6904331B6800220021184614F01D
:101AE00047FA0346BB623B691B6800220021184687
:101AF00014F03EFA03467B627B6ABB613348FFF712
:101B00003FFE0023FB6258E0FB6A03F00303002B57
:101B100004D17B6A19462E48FFF732FE7B6A1B68A8
:101B200019462C48FFF72CFEFB6A5A4203F00303C8
:101B300002F0030258BF5342032B38D12648FFF767
:101B40001FFE00233B622CE0BB691B68FB60002387
:101B5000FB611DE007F10C02FB6913441B781F2B8E
:101B600010D907F10C02FB6913441B787E2B09D8AE
:101B700007F10C02FB6913441B7819461748FFF75D
:101B8000FFFD02E01648FFF7FBFDFB690133FB6137
:101B9000FB69032BDEDDBB690433BB613B6A0133A8
:101BA0003B623B6A032BCFDD0E48FFF7E9FD7B6A02
:101BB00004337B62FB6A0133FB62FA6ABB6A9A42B6
:101BC000A2DB3037BD4680BD348601084886010857
:101BD000508601085C860108648601086886010851
:101BE0006C8601087086010880B582B000AF0123C1
:101BF000FB710D490D480BF0F7FC0346002B0AD191
:101C0000002209490A480AF04DF80346002B02D188
:101C1000084B01221A7008490848FFF7C1FEFB79FA
:101C200018460837BD4680BDF0700020F88B0108CB
:101C3000F4700020A1050020F11C00088086010836
:101C400080B5D6B000AF3B1D18603B1D07F5907204
:101C5000196810460BF01BF8034687F8573197F8C0
:101C60005731002B38D107F1080207F59073114660
:101C700018460BF0D0F8034687F8573197F85731DC
:101C8000002B24D107F108039B7D002B1FD007F107
:101C900008031B7A03F01003002B09D007F1080397
:101CA00003F116023B1D19680F48FFF769FDDAE7DB
:101CB00007F108031B68184607F1080303F1160231
:101CC000391D034609680948FFF75AFDCBE707F5B8
:101CD000907318460BF079F897F85731184607F5C6
:101CE000AC77BD4680BD00BF888601089486010898
:101CF00080B5ADF51A7D00AF3B1D1860002387F855
:101D000067323B1D1B681B88012B4AD13B1D1B689A
:101D10005B698B49002098470346002B41D0894BD3
:101D20001B7819468848FFF72BFD864B1B78002B44
:101D300034D007F5117207F51073194683480BF07C
:101D4000C2F8034687F85F3297F85F32002B1FD145
:101D5000D7F844329B69023BD7F84422528902FBF0
:101D600003F3C7F85832D7F844325B891A46D7F8DC
:101D7000403203FB02F3C7F85432D7F858325908FF
:101D8000D7F854325B081A467148FFF7F9FC05E0B2
:101D900097F85F3219466F48FFF7F2FC012387F886
:101DA00067323B1D1B681B88012B1BD13B1D1B6829
:101DB0005B696949002098470346002B12D06748A9
:101DC000FFF73EFF034687F8533297F85332002B54
:101DD00005D097F8533219465E48FFF7D1FC01232E
:101DE00087F867323B1D1B681B88012B40F09280EF
:101DF0003B1D1B685B695A49002098470346002B2E
:101E000000F08880FFF745F9C7F84C0207F1080396
:101E10000B225449184609F08BFF034687F84B32D2
:101E200097F84B32002B65D107F108034E4918464D
:101E30000BF06EF907F108034C4918460BF068F9EE
:101E400007F108034A4918460BF062F907F1080345
:101E5000484918460BF05CF907F108034649184653
:101E60000BF056F90023C7F860320CE007F10803C5
:101E7000D7F86022414918460BF04AF9D7F860328A
:101E80000133C7F86032D7F86032072BEEDD07F177
:101E90000803002118460AF0F1FC1CE00023C7F8F3
:101EA0003C3207F50F7307F23B2107F108000122CE
:101EB0000AF088F9034687F84B3297F84B32002B2B
:101EC0000FD1D7F83C32002B0DD097F83B32194692
:101ED0002B48FFF755FCFFF74DFD0346002BDDD1E6
:101EE00002E000BF00E000BF07F1080318460AF057
:101EF0009BFC02E02348FFF743FCFFF7CAF80246C9
:101F0000D7F84C32D31A19461F48FFF739FC012382
:101F100087F8673297F8673283F00103DBB2002B52
:101F200008D01A48FFF72CFC1948FFF729FC19487C
:101F3000FFF726FC00BF07F51A77BD4680BD00BF3E
:101F4000A8860108A1050020B0860108C486010802
:101F5000C8860108FC860108088701080C8701086B
:101F600010870108188701082087010828870108C1
:101F700030870108388701083C870108408701083D
:101F8000488701084C8701085C87010864870108BD
:101F9000708701087C87010880B500AF03490448B9
:101FA000FFF7FEFC0123184680BD00BF6D2100082D
:101FB0008887010880B58CB000AF78603960002355
:101FC00087F82F304FF6FF73BB850023BB620023D9
:101FD0007B6215E07B6A9BB23A687968184600F02C
:101FE0006DF80346002B08D0B7F92C30002B01DA2E
:101FF0007B6ABB85BB6A0133BB627B6A01337B6250
:102000007B6A072BE6DDBB6A002B20D00CF05CF965
:102010000023FB6001233B61B7F92C307B61BB6A75
:10202000BB610223FB6107F1080207F10C031146B3
:1020300018460CF0BBFA034687F8233097F8233094
:10204000002B02D1012387F82F300CF05FF997F8AD
:102050002F3018463037BD4680BD80B588B000AF00
:10206000F860B9607A600123FB770CF02DF900234A
:10207000BB6118E0BB69BA6813441B78FB82BA697C
:10208000FB68D118FA8A4FF0000300200CF0C8F862
:1020900003467B757B7D002B02D00023FB7706E097
:1020A000BB690133BB61BB697A689A42E2D80CF024
:1020B0002DF9FB7F18462037BD4680BD80B48BB01C
:1020C00000AF0346B9607A60FB81002387F82730B0
:1020D000FB89254A52F833303B62FB89224A52F889
:1020E0003320FB892049DB000B445B681344013B30
:1020F000FB61BB68BB61BA687B681344013B7B61D1
:102100003A6ABB699A4206D33A6A7B699A4202D814
:10211000012387F82730FA69BB699A4206D3FA6926
:102120007B699A4202D8012387F82730BA693B6A53
:102130009A4206D3BA69FB699A4202D8012387F80A
:1021400027307A693B6A9A4206D37A69FB699A42D8
:1021500002D8012387F8273097F8273018462C3704
:10216000BD465DF8047B70471000002080B58CB040
:1021700000AF7860002387F82F307B681B88012B25
:1021800021D17B685B695E49002098470346002B9C
:1021900019D00023BB6210E05A4ABB6A52F83310D0
:1021A000584ABB6ADB0013445B689B0A1A465648D0
:1021B000FFF7E6FABB6A0133BB62BB6A072BEBDDB4
:1021C000012387F82F307B681B88032B2BD17B687A
:1021D0005B694E49002098470346002B23D07B685B
:1021E0009B680120984703463B627B689B680220FE
:1021F00098470346FB6100237B620DE07A6A3B6AE5
:10220000D1187A6A3B6A13441B781A464048FFF794
:10221000B7FA7B6A01337B627B6AFA699A42EDD82E
:10222000012387F82F307B681B88032B24D17B6820
:102230005B693849002098470346002B1CD07B6817
:102240009B68012098470346BB617B689B6802201E
:10225000984703467B617969B869FFF7ABFE03468F
:10226000002B03D02C48FFF78BFA02E02B48FFF736
:1022700087FA012387F82F307B681B88032B27D12F
:102280007B685B692649002098470346002B1FD0D6
:102290007B689B680120984703463B617B689B688D
:1022A000022098470346FB6007F10C0304221946FD
:1022B0003869FFF7D2FE0346002B03D01948FFF719
:1022C0005FFA02E01848FFF75BFA012387F82F3026
:1022D00097F82F3083F00103DBB2002B0BD01348AB
:1022E000FFF74EFA1248FFF74BFA1248FFF748FA89
:1022F0001148FFF745FA00BF3037BD4680BD00BF2B
:10230000908701081000002098870108A88701081D
:10231000B0870108C0870108C8870108D487010871
:10232000E0870108E8870108F487010800880108B0
:102330000C880108288801084488010880B584B009
:1023400000AF0123FB7200237B601D4B1B6B1C4AFB
:1023500043F0020313631A4B1B6B03F002037B6011
:102360007B680023FB601EE0FB68D8B21549FA6861
:1023700013465B0013449B000B4408331B7819463B
:1023800000F026F8FB68D8B20E49FA6813465B00E5
:1023900013449B000B440B331B78194600F07AF86A
:1023A000FB680133FB60FB68032BDDDD0649074852
:1023B000FFF7F6FAFB7A18461037BD4680BD00BF1E
:1023C0000038024050000020A92500085C88010860
:1023D00080B588B000AF03460A46FB711346BB7157
:1023E0000123FB7707F1080300221A605A609A6004
:1023F000DA601A61BB79052B2CD801A252F823F0C0
:1024000019240008232400082D240008372400087C
:10241000412400084B2400080023FB6000233B619B
:1024200018E00023FB6001233B6113E00023FB6005
:1024300002233B610EE00123FB6000233B6109E0C6
:102440000123FB6001233B6104E00123FB600223C5
:102450003B6100BFFA790E4913465B0013449B00B1
:102460000B4404331B68BB60FA79094913465B00CF
:1024700013449B000B441B6807F1080211461846E1
:102480000CF0B6F9FB7F18462037BD4680BD00BF73
:102490005000002090B583B000AF03460A46FB71A0
:1024A0001346BB71FB79032B40D8BB79002B1ED0A0
:1024B000FA79204913465B0013449B000B441868CB
:1024C000FA791C4913465B0013449B000B44043308
:1024D0001B6899B2FA79174C13465B0013449B00B2
:1024E000234409331B781A460CF01EFB1FE0FA79CF
:1024F000104913465B0013449B000B441868FA799B
:102500000C4913465B0013449B000B4404331B68C7
:1025100099B2FA79074C13465B0013449B0023449D
:102520000A331B781A460CF0FFFA00E000BF0C37A4
:10253000BD4690BD5000002080B584B000AF03467A
:10254000FB710023FB73FB79032B01D9002324E0EB
:10255000FA79144913465B0013449B000B44186836
:10256000FA79104913465B0013449B000B44043373
:102570001B689BB219460CF0BFFA03461846FA795D
:10258000084913465B0013449B000B4409331B7836
:10259000984201D10123FB73FB7B18461037BD46DF
:1025A00080BD00BF5000002090B587B000AF7860BC
:1025B0000023FB757B681B88012B28D17B685B6936
:1025C0004749002098470346002B20D018E00023FD
:1025D0003B610CE03B69DBB21846FFF7ADFF0346F9
:1025E00019464048FFF7CCF83B6901333B613B6932
:1025F000032BEFDD3C48FFF7C3F86420FEF73EFDF8
:10260000FFF7B8F90346002BE1D10123FB757B6886
:102610001B88022B23D17B685B69344900209847D3
:102620000346002B1BD07B689B680120984703461C
:10263000FB730DE0FC7BFB7B1846FFF77DFF034639
:102640001A4621462A48FFF79BF86420FEF716FD3C
:10265000FFF790F90346002BECD10123FB757B6853
:102660001B88032B26D17B685B6922490020984791
:102670000346002B1ED07B689B68012098470346C9
:10268000BB737B689B680220984703467B737B7B08
:10269000002B14BF01230023DAB2BB7B114618467E
:1026A000FFF7F8FEBB7B7A7B19461348FFF768F803
:1026B0000123FB75FB7D83F00103DBB2002B0AD005
:1026C0000E48FFF75DF803210D48FFF759F8032185
:1026D0000C48FFF755F800BF1C37BD4690BD00BF42
:1026E000648801086C8801087088010874880108F2
:1026F0007C8801089088010898880108AC88010846
:10270000B8880108CC88010880B500AFFEF7C1FC8D
:1027100002460D4B1B68D31A0C4A1360FEF7B9FC36
:102720000346094A1360094B1B68002B07D0074B6F
:102730001B684FF47A72B2FBF3F3054A1360054B42
:1027400000221A7000BF80BDC4050020C80500200B
:10275000CC050020C205002080B584B002AF224B1A
:1027600064221A7002F06AFA204802F073FA1F4BD2
:102770005B691F48984700237B6007E01D4A7B6820
:10278000002122F813107B6801337B607B68B3F56E
:10279000485FF3DB4FF4C8420021164812F04EFCAC
:1027A000154B1B781A464FF4C84303FB02F3114A3A
:1027B0001344124A1360002300935023A0220021E7
:1027C000002000F0B9F900F0BBF8642000F01EF81A
:1027D0000B4B01221A700B490B48FFF7E1F801235C
:1027E00018460837BD4680BD80000020A4050020A3
:1027F0000927000800060020C1050020D0050020A0
:10280000C0050020592D0008B88B010880B582B0A2
:1028100000AF0346FB71FB79642B28BF6423FB7177
:102820000C4B1B78FA799A4202D00A4AFB79137052
:10283000084B1B78002B04D001210120FFF72AFE52
:1028400003E000210120FFF725FE00BF0837BD4649
:1028500080BD00BF80000020044B01EB81011B689C
:1028600000EB411123F81120704700BFD005002074
:1028700010B5044600F078F800F5C741A2B27E31E9
:10288000831E23F8022F8B42FBD110BD80B400AF12
:10289000034B1B681846BD465DF8047B704700BFBC
:1028A000CC05002080B400AF034B1B681846BD4622
:1028B0005DF8047B704700BFC805002080B400AFFE
:1028C000084B1B78002B14BF01230023DBB283F0DD
:1028D0000103DBB203F00103DBB21846BD465DF82D
:1028E000047B7047C205002098B500AF104B1B78E1
:1028F000002B01D0002319E00E4B9C684F239F2230
:1029000000210020A0470A4B01221A70094B9B6945
:10291000094A127811464FF4C84202FB01F20749F6
:10292000501800224FF4485198470123184698BD8B
:10293000C2050020A4050020C105002000060020DB
:1029400080B500AFFFF7D0FF02E00120FEF796FB55
:10295000FFF7B4FF034683F00103DBB2002BF4D191
:1029600000BF00BF80BD00BF80B400AF034B1B6839
:102970001846BD465DF8047B704700BFD0050020B7
:1029800090B589B000AF0446084611461A46234662
:10299000FB800346BB800B467B8013463B80B7F928
:1029A0000020B7F90430D31A83EAE372A2EBE37292
:1029B000B7F90210B7F90630CB1A002BB8BF5B424B
:1029C0009A42CCBF01230023DBB27B83B7F90630E8
:1029D000002B01DA0023FB80B7F90430002B01DA69
:1029E0000023BB80B7F90230002B01DA00237B8083
:1029F000B7F90030002B01DA00233B80B7F91A3019
:102A0000002B0BD0FB883B83BB88FB803B8BBB80C0
:102A10007B88FB823B887B80FB8A3B80B7F9062062
:102A2000B7F902309A420BDDFB88BB827B88FB80C2
:102A3000BB8A7B80BB887B823B88BB807B8A3B8058
:102A40007A88FB88D31A9BB23B82B7F90020B7F98A
:102A50000430D31A002BB8BF5B42FB81B7F91030AA
:102A6000DA0F13445B10FB83B7F90420B7F9003089
:102A70009A4202DA0123BB832DE04FF6FF73BB833A
:102A800029E0B7F91A30002B06D0BB88F9883A8EB6
:102A90001846FFF7E1FE05E0FB88B9883A8E184634
:102AA000FFF7DAFEFA8BFB89D31A9BB2FB83B7F9E7
:102AB0001E30002B09DABA88BB8B13449BB2BB8053
:102AC000FA8B3B8A13449BB2FB83B7F906309BB267
:102AD00001339BB2FB80B7F90620B7F902309A4266
:102AE000CFDD00BF00BF2437BD4690BD90B585B097
:102AF00002AF0446084611461A462346FB800346A9
:102B0000BB800B467B8013463B80BA887B8813448E
:102B10009BB2013B9BB21CB2B7F90620B7F9041077
:102B2000B7F906003B8800932346FFF729FF00BF53
:102B30000C37BD4690BD00BF90B585B000AF0446D0
:102B4000084611461A462346FB800346BB800B46C7
:102B50007B8013463B80FB88FB810EE03B8CB7F902
:102B60000020B7F90410B7F90E00FFF7BFFFB7F95F
:102B70000E309BB201339BB2FB81B7F90E20B7F93F
:102B80000610B7F902300B449A42E7DB00BF00BFE2
:102B90001437BD4690BD00BF08B480B5D5B000AFB6
:102BA00007F10C03186007F108031960BB1D1A80B8
:102BB00007F5B073C7F8383107F10C031B68C7F885
:102BC000443107F13800D7F83831D7F85C21FF21BC
:102BD00013F004FAC7F840010023C7F84C3154E061
:102BE00007F13802D7F84C31134407F110021146AF
:102BF000184601F031FDBB1D1B8807F1100207F1DB
:102C0000080107F10C000968006800F04FF807F1AF
:102C100010035B88C7F83C31D7F83C31012B0ADD43
:102C2000102387F84B3107F10C0307F10C021268EF
:102C300010321A6009E0082387F84B3107F10C03C2
:102C400007F10C02126808321A6097F84B2107F15D
:102C50000C031B681344A02B0BDD07F10C03D7F802
:102C600044211A6007F1080307F1080212681032C4
:102C70001A6007F110039B88042B0DD0D7F84C2164
:102C8000D7F83C311344C7F84C31D7F84C21D7F86A
:102C900040319A42A4DB00E000BF00BF07F5AA77ED
:102CA000BD46BDE8804001B0704700BF80B588B028
:102CB00000AFF860B9607A607B807B685B883B839B
:102CC0003B8B022B01D902233B830023FB833AE099
:102CD0000023FB820023BB832EE0FB8B3A8B02FB9D
:102CE00003F2BB8B13447A6813449B797B750023F2
:102CF0007B831BE07A7D7B8B02FA03F303F0800376
:102D0000002B0DD0FB689AB2FB8A134498B2BB68C3
:102D10009AB2FB8B13449BB27A881946FFF79CFD4D
:102D2000FB8A0133FB827B8B01337B837B8B072BFD
:102D3000E0D9BB8B0133BB83BA8B3B8B9A42CCD39C
:102D4000FB8B0133FB83FB8B0F2BC1D900BF00BF73
:102D50002037BD4680BD00BF80B586B002AF786029
:102D60000023FB737B681B88012B60D17B685B6948
:102D70003549002098470346002B58D04BE0FFF719
:102D80009DFD0346002B46D00020FFF771FD2F4B21
:102D90004FF4FC6200211920FFF7FEFEFFF776FDDD
:102DA000034600932A4B4FF6FF7210210020FFF7D5
:102DB000F3FEFFF777FD03460093264B4FF6FF72B5
:102DC00020210020FFF7E8FEFEF763F90346009399
:102DD000204B4FF6FF7230210020FFF7DDFE4FF44D
:102DE000784300930A230A2246210020FFF7A4FE1D
:102DF0004FF4FC6300930A230A2246210A20FFF7BE
:102E00009BFE1F2300930A230A2246211420FFF76A
:102E100093FEFFF769FDFEF7ADFD0346002BAED133
:102E20000020FFF725FDFFF78BFD0123FB73FB7BE4
:102E300083F00103DBB2002B02D00748FEF7A0FCB1
:102E400000BF1037BD4680BDBC8B0108C48B010894
:102E5000D48B0108DC8B0108E48B010880B588B0B5
:102E600000AF0123FB763B1D00221A605A609A6076
:102E7000DA601A6100233B601B4B1B6B1A4A43F05C
:102E800004031363184B1B6B03F004033B603B68A4
:102E90000123BB600023FB6000233B610023FB6137
:102EA00016E0124AFB69DB0013449B887B600F4AE3
:102EB000FB6952F833303A1D114618460BF098FC66
:102EC000FB69DBB2184600F017F8FB690133FB61C0
:102ED000FB69002BE5DD06490648FEF761FDFB7E38
:102EE00018462037BD4680BD0038024084000020CF
:102EF000712F0008E888010880B582B000AF034652
:102F0000FB71FB79002B11D1FB790A4A52F833008F
:102F1000FB79084ADB0013449988FB79054ADB00FA
:102F20001344DB791A460BF0FFFD00E000BF0837C1
:102F3000BD4680BD8400002080B582B000AF03464E
:102F4000FB71FB79002B0DD1FB79084A52F8332035
:102F5000FB790649DB000B449B88194610460BF0B1
:102F6000FCFD00E000BF0837BD4680BD84000020A6
:102F700080B586B000AF78600023FB757B681B8846
:102F8000032B33D17B685B691F49002098470346B8
:102F9000002B2BD07B689B68012098470346BB75AC
:102FA0007B689B68022098470346FB60BB7D002B33
:102FB00002D0BB7D013BBB75FEF76BF838610EE0BC
:102FC000FEF767F802463B69D31AFA689A4206D8B8
:102FD000FEF75FF83861BB7D1846FFF7ADFFFEF7DF
:102FE000C9FC0346002BEBD10123FB75FB7D83F06D
:102FF0000103DBB2002B03D001210448FEF7C0FB24
:1030000000BF1837BD4680BDEC880108F488010870
:1030100080B586B000AF3B1D00221A605A609A60EE
:10302000DA601A610022012111480BF07DFD0122B6
:1030300002210F480BF078FD03237B600123BB6066
:103040000023FB6000233B613B1D194608480BF041
:10305000CFFB04237B600023BB600123FB603B1D8F
:10306000194603480BF0C4FB00BF1837BD4680BDAE
:103070000004024080B483B000AF0346FB71134BE1
:103080001B681A68114B1B6822F040021A600F4B34
:103090001B6819680D4B1A684FF6C7730B40136015
:1030A0000A4B1B681968FA79084B1B680A431A60B7
:1030B000064B1B681A68054B1B6842F040021A60F9
:1030C00000BF0C37BD465DF8047B704734750020A7
:1030D00080B586B002AF78600B46FB70FB78BB739F
:1030E00007F10F0207F10E01FF2300930123786817
:1030F0000EF008FF0346002B01D0FF23FB73FB7B80
:1031000018461037BD4680BD80B582B000AF194A61
:103110003B4692E803001860043319701820FFF74B
:10312000A9FF3B4605221946302000F0A7F83B4690
:1031300005221946102000F06BF80023FB710AE00D
:10314000FB7907F10802134413F8083CA52B06D1BC
:10315000FB790133FB71FB79042BF1D900E000BF4F
:10316000FB79052B01D0012300E000231846083726
:10317000BD4680BD1489010880B584B000AF034608
:103180000A46FB711346BB71002202210C480BF06A
:10319000CBFCFB7919460B48FFF79AFF0346FB73FC
:1031A000BB7919460748FFF793FF01220221044823
:1031B0000BF0BAFCFB7B18461037BD4680BD00BF44
:1031C000000402403475002080B584B000AF03468F
:1031D000FB71002202210C480BF0A6FCFB7919467A
:1031E0000A48FFF775FFFF210848FFF771FF034604
:1031F000FB730122022104480BF096FCFB7B18466E
:103200001037BD4680BD00BF000402403475002069
:1032100090B585B000AF03463960FB711346BB71B2
:103220000022022113480BF07FFCFB79194612485B
:10323000FFF74EFF0346BB730023FB730BE0FB7BE2
:103240003A68D418FF210C48FFF742FF0346237069
:10325000FB7B0133FB73FA7BBB799A42EFD30122EC
:10326000022104480BF060FCBB7B18461437BD46B6
:1032700090BD00BF000402403475002080B584B0CA
:1032800000AF03463960FB711346BB710022022177
:1032900012480BF049FCFB7919461148FFF718FF5B
:1032A0000346BB730023FB730AE03B685A1C3A6079
:1032B0001B7819460A48FFF70BFFFB7B0133FB73B2
:1032C000FA7BBB799A42F0D30122022103480BF02A
:1032D0002BFCBB7B18461037BD4680BD0004024066
:1032E0003475002080B584B000AF78601820FFF7F7
:1032F000C1FE0720FFF768FF0346FB73FB7B1946FF
:103300002720FFF739FFFB7B03F04003002B0AD097
:10331000202279686120FFF77BFFFF21E220FFF781
:103320002BFF002300E0012318461037BD4680BD67
:1033300080B500AF0022012114480BF0F5FB0F21EE
:103340002020FFF719FF01212120FFF715FF0121A0
:103350002220FFF711FF28212520FFF70DFF0F2165
:103360002620FFF709FF20213120FFF705FF052266
:1033700007492A20FFF782FF0122012103480BF0B1
:10338000D3FB01200AF078FA00BF80BD00040240A0
:10339000F08B010880B582B000AF0023FB71204B99
:1033A000204A1A601E4B00225A601D4B00229A6070
:1033B0001B4B0022DA601A4B00221A61184B0022C4
:1033C0005A61174B00229A61174B00221A70002095
:1033D000FFF7B2F80346002B02D0134B01221A70FC
:1033E000114B1B78002B0FD00D480DF0C9F9034687
:1033F000002B09D14FF4006109480DF0A1FF0346ED
:10340000002B01D10123FB71084AFB791370084995
:103410000848FEF7C5FAFB7918460837BD4680BD57
:10342000E8730020002C0140016A0020006A00209F
:10343000193900081C89010880B400AF034B1B78C0
:103440001846BD465DF8047B704700BF006A002047
:1034500080B500AF0020FFF76FF80346002B03D0C4
:10346000054B01221A7002E0034B00221A70024B36
:103470001B78184680BD00BF016A0020B0B58CB033
:1034800000AF7860002387F82F307B68BB62244B45
:103490001B78002B3ED007F10803194621480DF098
:1034A00023FFBA68BB6A1A60FA68BB6A5A603A6955
:1034B000BB6A9A607A69BB6ADA60BA69BB6A1A61E8
:1034C000FA69BB6A5A613A6ABB6A9A617A6ABB6AEC
:1034D000DA61BB6A1B6918464FF00001BB6A5B6981
:1034E0001A464FF0000302FB01F500FB03F42C44E5
:1034F000A0FB0223E1180B464FF000004FF0000143
:10350000100D40EA0330190D0246BB6A1A6201230E
:1035100087F82F3097F82F3018463037BD46B0BDAA
:10352000006A0020E873002080B582B000AF084830
:103530000DF0A0FF0346042B02D10023FB7101E034
:103540000123FB71FB7918460837BD4680BD00BFDB
:10355000E873002080B584B000AF7860FDF799FD76
:10356000F86009E0FFF7E0FF034683F00103DBB2F8
:10357000002B01D0012308E0FDF78BFD0246FB681C
:10358000D31A7A689A42EDD8002318461037BD4600
:1035900080BD000080B586B000AFF860B9607A6089
:1035A0003B600023FB751E4B00221A707B68FA6893
:1035B000B9681C480DF092F90346002B2AD1FDF79B
:1035C00068FD386107E0FDF764FD02463B69D31AE8
:1035D0003A689A4208D9124B1B78DBB283F0010398
:1035E000DBB2002BEFD10DE000BF0BE0FDF751FD8A
:1035F00002463B69D31A3A689A4203D8084B002224
:103600001A7004E0FFF790FF0346002BEED1044B45
:103610001B78FB75FB7D18461837BD4680BD00BF83
:10362000026A0020E873002080B483B000AF7860A5
:10363000044B01221A7000BF0C37BD465DF8047BB5
:10364000704700BF026A002080B483B000AF78608A
:10365000044B01221A7000BF0C37BD465DF8047B95
:10366000704700BF036A002080B586B000AFF860E5
:10367000B9607A603B600023FB751E4B00221A7014
:103680007B68FA68B9681C480DF00AFA0346002BFB
:103690002AD1FDF7FEFC386107E0FDF7FAFC02468F
:1036A0003B69D31A3A689A4208D9124B1B78DBB2AD
:1036B00083F00103DBB2002BEFD10DE000BF0BE084
:1036C000FDF7E7FC02463B69D31A3A689A4203D8F1
:1036D000084B00221A7004E0FFF726FF0346002B78
:1036E000EED1044B1B78FB75FB7D18461837BD46A1
:1036F00080BD00BF036A0020E873002080B58CB055
:1037000000AF786007F11C0300221A605A609A60CB
:10371000DA601A617B681B68774A934240F0E88060
:103720000023BB61754B1B6B744A43F48003136326
:10373000724B1B6B03F48003BB61BB6900237B618D
:103740006E4B5B6C6D4A43F4006353646B4B5B6C74
:1037500003F400637B617B6900233B61674B1B6B58
:10376000664A43F001031363644B1B6B03F00103D0
:103770003B613B690023FB60604B1B6B5F4A43F07E
:10378000020313635D4B1B6B03F00203FB60FB68DA
:103790004FF45073FB6102233B6201237B620323DE
:1037A000BB620C23FB6207F11C03194654480BF063
:1037B0001FF848F2A003FB6102233B6201237B62F6
:1037C0000323BB620C23FB6207F11C0319464D481F
:1037D0000BF00EF84C4B4D4A1A604B4B4FF0006209
:1037E0005A60494B00229A60474B0022DA60464BF0
:1037F0004FF480621A61444B4FF480525A61424B3D
:103800004FF480429A61404B2022DA613E4B002205
:103810001A623D4B04225A623B4B03229A623A4B96
:103820004FF40002DA62384B4FF400121A63364844
:103830000AF058F90346002B01D0FDF7ABFC7B687A
:10384000314A1A64304A7B689363314B314A1A60BB
:103850002F4B4FF000625A602D4B40229A602C4B48
:103860000022DA602A4B4FF480621A61284B4FF431
:1038700080525A61264B4FF480429A61244B202299
:10388000DA61234B00221A62214B04225A62204B38
:1038900003229A621E4B4FF40002DA621C4B4FF473
:1038A00000121A631A480AF01DF90346002B01D0D2
:1038B000FDF770FC7B68164ADA63154A7B689363F0
:1038C0000022052131200AF0D6F831200AF0EFF865
:1038D000002205213B200AF0CEF83B200AF0E7F851
:1038E0000022052145200AF0C6F845200AF0DFF83D
:1038F00000BF3037BD4680BD002C0140003802407B
:103900000000024000040240287300205864024076
:1039100088730020A064024090B5ADF5077D00AF2C
:103920003B1D1860002387F817323B1D1B681B885E
:10393000012B79D13B1D1B685B69684900209847C2
:103940000346002B70D0664B1B7819466548FDF77F
:1039500017FF654B1B7819466448FDF711FF604B54
:103960001B78002B5DD007F10C031846FFF786FD8E
:103970000346002B55D007F10C031B6819465C4821
:10398000FDF7FEFE07F10C035B6819465948FDF789
:10399000F7FE07F10C039B6819465748FDF7F0FE48
:1039A00007F10C03DB6819465448FDF7E9FE07F1FF
:1039B0000C031B6919465248FDF7E2FE07F10C03A0
:1039C0005B6919464F48FDF7DBFE07F10C039B6965
:1039D00019464D48FDF7D4FE07F10C03DB69194683
:1039E0004A48FDF7CDFE07F10C03186A07F10C03F6
:1039F0001B6A9C0A07F10C031A6A13469B001344C6
:103A00005B00990A424BA3FB0123DA0813469B0093
:103A100013445B00CA1A1346224601463D48FDF78F
:103A2000AFFE012387F817323B1D1B681B88022B52
:103A30003ED13B1D1B685B69374900209847034610
:103A4000002B35D03B1D1B689B680120984703461F
:103A5000C7F80C3207F10C0164230122D7F80C02DD
:103A6000FFF798FD0346002B1CD00023C7F8103247
:103A700013E0D7F81032990007F10C03D7F81022A1
:103A800053F822300A46D7F80C122448FDF778FE86
:103A9000D7F810320133C7F81032D7F810327F2B25
:103AA000E7DD02E01E48FDF76BFE012387F81732C1
:103AB00097F8173283F00103DBB2002B09D01948C5
:103AC000FDF75EFE064B1B78002B02D01648FDF773
:103AD00057FE00BF07F50777BD4690BD2089010856
:103AE000006A002028890108016A00203C89010839
:103AF000508901087089010890890108B08901087E
:103B0000D0890108F0890108108A0108308A01086B
:103B1000CDCCCCCC508A01087C8A0108848A01086B
:103B2000988A0108A88A0108B48A010880B483B081
:103B300000AF0123FB7000237B6016E0104A7B6816
:103B40001B01134400221A700D4A7B681B011344A9
:103B5000013301221A700A4A7B681B0113440433A3
:103B600000221A607B6801337B607B68002BE5DDF7
:103B7000FB7818460C37BD465DF8047B704700BFE4
:103B80002475002080B584B000AF0346FB7100238C
:103B9000FB73FB791B01214A1344BB60FB79002BAB
:103BA00037D1BB681E4A9A60BB681E4ADA601C4B5C
:103BB0001D4A1A601A4B4FF482725A60184B002249
:103BC0009A60174B0022DA60154B00221A61144BE1
:103BD00000225A61124B4FF400729A61104B00227E
:103BE000DA610F4B00221A620D4B00225A620C4B15
:103BF00000229A620A4B0A22DA6209480EF0F9F8AA
:103C00000346002B04D1BB6801221A700123FB7309
:103C100000BFFB7B18461037BD4680BD24750020D1
:103C2000CC7400206C7400200034014080B584B056
:103C300000AF03460A46FB711346BB71FB791B01BB
:103C4000294A1344FB60FB681B7883F00103DBB255
:103C5000002B45D1BB79032B43D801A252F823F0A6
:103C6000713C00088D3C0008A93C0008C53C0008D8
:103C7000FB689B6800221A61FB689B6800225A61FE
:103C8000FB689B6818460EF0B4F82AE0FB689B6856
:103C900000221A61FB689B6801225A61FB689B68DD
:103CA00018460EF0A6F81CE0FB689B6802221A6119
:103CB000FB689B6800225A61FB689B6818460EF0FF
:103CC00098F80EE0FB689B6802221A61FB689B680B
:103CD00001225A61FB689B6818460EF08AF800E0E2
:103CE00000BF1037BD4680BD2475002080B584B06C
:103CF00000AF03460A46FB711346BB71FB791B01FB
:103D00000F4A1344FB60FB681B7883F00103DBB2AE
:103D1000002B11D1FB689B680022DA60BB79102B65
:103D200004D1FB689B684FF40062DA60FB689B6813
:103D300018460EF05EF800E000BF1037BD4680BDAB
:103D40002475002080B586B002AF03460A46FB7199
:103D50001346BB71FB791B010D4A1344FB60FB68E2
:103D60001B7883F00103DBB2002B01D000230BE0B2
:103D7000FB68986807F10B02B91D4FF6FF730093BB
:103D800001230EF0BFF8FB7A18461037BD4680BD00
:103D90002475002080B586B000AF0346B9607A6014
:103DA000FB73FB7B1B010D4A13447B617B691B7812
:103DB00083F00103DBB2002B0BD17B6900225A7028
:103DC0007B699B687A6892B2B96818460EF03CFA33
:103DD00000E000BF1837BD4680BD00BF247500203D
:103DE00080B586B000AFB9607A603B600346FB7374
:103DF000FB7B7A68B9681846FFF7CCFFFDF749F9F5
:103E000078613B68002B0FD0FB7B184600F014F85C
:103E10000346002B0AD1FDF73CF902467B69D31A11
:103E20003A689A4204D3EFE700BF02E000BF00E027
:103E300000BF1837BD4680BD80B485B000AF0346D3
:103E4000FB71FB791B010A4A1344FB60FB681B787A
:103E500083F00103DBB2002B01D0012301E0FB68FA
:103E60005B7818461437BD465DF8047B704700BF89
:103E70002475002080B485B000AF03463960FB7123
:103E8000FB791B01094A1344FB60FB681B7883F034
:103E90000103DBB2002B03D1FB683A685A6000E0F3
:103EA00000BF1437BD465DF8047B704724750020C1
:103EB00080B584B000AF78607B681A680A4B9B6855
:103EC0001B689A420BD1084BFB60FB6801225A70B9
:103ED000FB685B68002B02D0FB685B68984700BFFB
:103EE0001037BD4680BD00BF2475002080B58EB060
:103EF00000AF786007F1240300221A605A609A60CC
:103F0000DA601A617B681B68784A934240F09A80B5
:103F100000233B62764B1B6B754A43F480031363AB
:103F2000734B1B6B03F480033B623B6A0023FB6112
:103F30006F4B5B6C6E4A43F4005353646C4B5B6C89
:103F400003F40053FB61FB690023BB61684B1B6BEF
:103F5000674A43F001031363654B1B6B03F00103D6
:103F6000BB61BB6900237B61614B1B6B604A43F003
:103F7000020313635E4B1B6B03F002037B617B69DF
:103F800002237B620223BB620023FB6203233B63A9
:103F900005237B6307F12403194656480AF028FCE1
:103FA0004FF400537B620223BB620023FB620323B6
:103FB0003B6306237B6307F1240319464E480AF04E
:103FC00017FC4E4B4E4A1A604C4B4FF000625A6041
:103FD0004A4B40229A60494B0022DA60474B4FF42B
:103FE00080621A61454B4FF400625A61434B4FF4B3
:103FF00000529A61414B0022DA61404B00221A6262
:104000003E4B00225A623D4809F06CFD0346002BEE
:1040100001D0FDF7BFF87B68384A9A64374A7B685D
:10402000936300220521542009F025FD542009F056
:104030003EFD00220521392009F01DFD392009F03F
:1040400036FD4EE07B681B682E4A934249D100231F
:104050003B61274B5B6C264A43F480535364244BEB
:104060005B6C03F480533B613B690023FB60204B96
:104070001B6B1F4A43F0010313631D4B1B6B03F0C3
:104080000103FB60FB680023BB60194B1B6B184AE4
:1040900043F002031363164B1B6B03F00203BB6078
:1040A000BB68A0237B620223BB620023FB62032365
:1040B0003B6305237B6307F1240319460D480AF08F
:1040C00097FB10237B620223BB620023FB62032366
:1040D0003B6305237B6307F12403194606480AF076
:1040E00087FB00BF3837BD4680BD00BF00340140AC
:1040F0000038024000000240000402406C740020BE
:10410000286402400030014080B500AF174B184AC8
:104110001A60164B4FF482725A60144B00229A6058
:10412000124B0022DA60114B00221A610F4B002261
:104130005A610E4B4FF400729A610C4B1822DA61EF
:104140000A4B00221A62094B00225A62074B0022D6
:104150009A62064B0A22DA6204480DF04AFE0346D0
:10416000002B01D0FDF716F800BF80BD347500208C
:104170000030014080B483B000AF00237B6007E0D3
:10418000084A7B68134400221A707B6801337B6005
:104190007B68002BF4DD012318460C37BD465DF823
:1041A000047B7047046A002080B584B000AF0346EA
:1041B000FB710023FB60FB79002B02D0012B04D0A4
:1041C0001BE002F095FCF86017E0FB790D4A1B013B
:1041D0001344083319680C4B1B685A68FB798A1A18
:1041E00008491B010B441A60FB791B01054A134463
:1041F0001846FDF764F9F86000BFFB6818461037F1
:10420000BD4680BD086A00208C75002080B586B050
:1042100000AF0346B9607A60FB7300237B61FB7BD0
:10422000002B02D0012B06D014E07968B86802F0A8
:10423000A9FC78610EE07B689AB26423B9680848EB
:104240000EF079FB0346FB74FB7C002B01D17B68ED
:104250007B6100BF7B6918461837BD4680BD00BF33
:10426000EC75002080B58AB000AF786007F11403C8
:1042700000221A605A609A60DA601A617B681B68D3
:10428000194A93422CD100233B61184B5B6C174AAF
:1042900043F010035364154B5B6C03F010033B6158
:1042A0003B690023FB60114B1B6B104A43F0010379
:1042B00013630E4B1B6B03F00103FB60FB684FF4B1
:1042C00004437B610223BB610023FB6103233B6248
:1042D00007237B6207F11403194605480AF088FAA0
:1042E00000BF2837BD4680BD0010014000380240A5
:1042F0000000024080B500AF114B124A1A60104B0B
:104300004FF4E1325A600E4B00229A600C4B0022AF
:10431000DA600B4B00221A61094B0C225A61084BE0
:1043200000229A61064B0022DA6105480EF0B6FAC7
:104330000346002B01D0FCF72DFF00BF80BD00BF5E
:10434000EC7500200010014080B483B000AF012361
:10435000FB71FB7918460C37BD465DF8047B70474E
:1043600080B584B000AF0346FB710023FB73FB797B
:10437000012B2AD100222F492F4800F02BFF0346A2
:10438000002B01D0002350E02C492B4800F052FFB5
:104390000346002B01D0002347E02949264802F0BC
:1043A00001FB0346002B01D000233EE0224800F031
:1043B00068FF0346002B01D0002336E0FDF768F9C3
:1043C000204B01221A700123FB73FB79022B28D1A9
:1043D00000221D49184800F0FDFE0346002B01D0C5
:1043E000002322E01949144800F024FF0346002B63
:1043F00001D0002319E016490F4803F01BF90346CA
:10440000002B01D0002310E00B4800F03AFF0346D8
:10441000002B01D0002308E00A4B02221A7001236E
:10442000FB730C4AFB7B1370FB7B18461037BD46B1
:1044300080BD00BFC0010020307600209C0000201D
:10444000AC010020196A0020100200206002002048
:1044500048030020186A002080B582B000AF0346F0
:10446000FB711D4B00221A70FEF7E6FF034683F036
:104470000103DBB2002B07D0174B1B78DBB243F0F4
:104480000103DAB2144B1A70FEF7E2FF034683F021
:104490000103DBB2002B07D00F4B1B78DBB243F0DC
:1044A0000203DAB20C4B1A700A20FFF753F80346E6
:1044B00083F00103DBB2002B07D0074B1B78DBB284
:1044C00043F00103DAB2044B1A70034B1B78DBB2E2
:1044D00018460837BD4680BD8C00002080B582B0EC
:1044E00000AF0346FB710D4B00221A70FEF7A4FFCC
:1044F000034683F00103DBB2002B07D0074B1B7888
:10450000DBB243F00103DAB2044B1A70034B1B78A1
:10451000DBB218460837BD4680BD00BF8C000020C6
:1045200080B582B000AF0346FB71FB791846FFF7F8
:1045300093FF034618460837BD4680BD80B586B058
:1045400000AFB9607A603B600346FB730123FB75E3
:1045500042F210733A68B9687868FFF71BF80346AF
:10456000002B01D00023FB75FB7D18461837BD4694
:1045700080BD80B586B000AFB9607A603B6003460D
:10458000FB730123FB7542F210733A68B9687868CF
:10459000FFF76AF80346002B01D00023FB75FB7D73
:1045A00018461837BD4680BD80B58CB000AF0346B5
:1045B0003A60FB710B46BB71012387F82F30254B06
:1045C0001B78DBB203F00103002B01D003233CE096
:1045D000BB79032B34D801A252F823F0ED45000833
:1045E000F54500080D46000827460008002387F817
:1045F0002F3028E007F108031846FEF73FFF3A6A1C
:104600003B681A60002387F82F301CE007F108038D
:104610001846FEF733FF7B6A9AB23B681A80002384
:1046200087F82F300FE007F108031846FEF726FF42
:104630007B6A5A0A3B681A60002387F82F3002E031
:10464000042387F82F3097F82F3018463037BD46AF
:1046500080BD00BF8C00002080B584B000AF7860C2
:1046600039603B68063320220021184610F0E6FC32
:104670003B6800229A807B681B78002B03D07B6804
:104680001B780A2B07D13B6804229A803B680122E1
:104690005A8004233BE07B681B785BB2002B2BDA4B
:1046A0007B681B781A047B6801331B781B02134359
:1046B0007A68023212781343FB60FB68164A934211
:1046C0000ED3FB68154A93420AD83B6801229A80B0
:1046D0003B6803225A803968786800F01FF909E0C6
:1046E0003B6801229A803B6802225A8039687868C8
:1046F00000F016F801230AE03B6802229A803B682A
:1047000001225A803968786800F030FA022318468E
:104710001037BD4680BD00BF80B0EA00B09FED00FD
:1047200080B584B000AF786039607B681B781B026D
:104730001AB27B6801331B781BB213431BB2BB81D7
:10474000BB89184600F03CFA0346BB81BB899B0A33
:104750009BB203F01F039AB2634B1A80BB895B09BB
:104760009BB203F01F039AB2604B1A80BB8903F01F
:104770001F039AB25E4B1A805B4B1B881A465D4B37
:104780009B5C9AB2584B1A80584B1B881A465A4B5E
:104790009B5C9AB2554B1A80554B1B881A46574B57
:1047A0009B5C9AB2524B1A80514B1B88002B06D04F
:1047B0004E4B1B881A46524B9B5C9BB205E04B4B01
:1047C0001B881A464F4B9B5C9BB24F4A1380464B4B
:1047D0001B88002B09D0444B1B88012B05D0424B72
:1047E0001B88102B01D0012300E000239BB2404A1C
:1047F0001288002A01D0022200E0002213449AB25B
:10480000424B1A80394B1B881A46414B9B5C9AB22B
:10481000404B1A800023FB8135E03B4B1B881A4636
:1048200013469B0013449B001A462F4B1B881A44C7
:10483000FB8939495201134431F81320FB89D1B265
:104840003A6813440A469A71FB893A681344997985
:104850002E4B1B881A46162303FB02F3A033234A70
:1048600012881A44FB892C485201134430F8133043
:10487000DAB2FB890A43D1B23A6813440A469A7104
:10488000FB890133FB81FB891F2BC6D9184B1B8881
:10489000002B25D00023FB811FE0FB893A681344DD
:1048A00099791C4B1B881A461346DB009B1A9B0008
:1048B000F8330F4A12881A44FB89174852011344EF
:1048C00030F81330DAB2FB890A43D1B23A681344A4
:1048D0000A469A71FB890133FB81FB891F2BDCD9C6
:1048E00000BF1037BD4680BD1A6A00201C6A002038
:1048F0001E6A00200CA401082CA401084CA4010885
:10490000E4A40108CCA40108206A0020226A002047
:10491000FCA40108246A002000CA010880B485B004
:1049200000AF786039607B681B781B031AB27B6824
:1049300001331B789B011BB203F47C631BB213434E
:104940001AB27B6802331B781BB203F03F031BB221
:1049500013431BB2BB81BB8903F5A843BB81BA8952
:1049600093087349A1FB03310B46DB005B1A9B00E4
:10497000D31A9AB26F4B1A80BB899B086C4AA2FB70
:104980000323BB81B9896C4BA3FB0123CA1A5208CC
:1049900013441A0913465B001344DA00D21A8B1A27
:1049A0009AB2664B1A80BA89634BA3FB0213D21AE0
:1049B000520813441B099AB2614B1A80604B1B8842
:1049C0001A46604B9B5C9AB25D4B1A805B4B1B880E
:1049D0001A465D4B9B5C9AB2584B1A80554B1B880C
:1049E0001A465A4B9B5C9AB2524B1A80514B1B8809
:1049F000002B06D0514B1B881A46554B9B5C9BB233
:104A000005E04E4B1B881A46524B9B5C9BB2524AA8
:104A100013804B4B1B88002B09D0494B1B88012B63
:104A200005D0474B1B88102B01D0012300E0002349
:104A30009BB2404A1288002A01D0022200E00022E4
:104A400013449AB2454B1A803C4B1B881A46444B80
:104A50009B5C9AB2434B1A800023FB8135E03E4BAE
:104A60001B881A4613469B0013449B001A46344B7E
:104A70001B881A44FB893C495201134431F8132026
:104A8000FB89D1B23A6813440A469A71FB893A68A5
:104A900013449979314B1B881A46162303FB02F302
:104AA000A033264A12881A44FB892F485201134426
:104AB00030F81330DAB2FB890A43D1B23A681344B2
:104AC0000A469A71FB890133FB81FB891F2BC6D9EA
:104AD000184B1B88002B25D00023FB811FE0FB898E
:104AE0003A68134499791F4B1B881A461346DB001A
:104AF0009B1A9B00F8330F4A12881A44FB891A4804
:104B00005201134430F81330DAB2FB890A43D1B2B0
:104B10003A6813440A469A71FB890133FB81FB8989
:104B20001F2BDCD900BF1437BD465DF8047B7047EE
:104B300025499224266A002087611886286A002069
:104B40002A6A00206CA401088CA40108ACA4010806
:104B5000E4A40108CCA401082C6A00202E6A0020DD
:104B6000FCA40108306A002000CA010880B485B0A6
:104B700000AF786039607B681B787B737B7B203B60
:104B80007B730023FB810FE07A7BFB890B491201C9
:104B9000134451F82320FB89D1B23A6813440A46E2
:104BA0009A71FB890133FB81FB890F2BECD900BF84
:104BB00000BF1437BD465DF8047B70470C8C0108BC
:104BC00080B485B000AF0346FB80FB881B0AFB81E5
:104BD000FB88DBB2BB81FB89B03B5E2202FB03F2A8
:104BE000BB89A13B1344BB60054ABB6852F8233024
:104BF0009BB218461437BD465DF8047B704700BF72
:104C000040A5010880B500AF0A4B1B78DBB2002B32
:104C10000DD0084B00221A7001210220FDF73AFC4A
:104C2000054B1B68002B02D0034B1B68984700BF45
:104C300080BD00BF386A0020346A002080B582B091
:104C400000AF00F035F80346FB71FB7918460837D2
:104C5000BD4680BD80B483B000AF78607B680D4AEC
:104C60001A607B680C4A5A607B680C4A9A607B68C1
:104C70000B4ADA607B680B4A1A617B680A4A5A6100
:104C80007B680A4A9A61012318460C37BD465DF8D5
:104C9000047B70473D4C0008B14C0008754F00087C
:104CA000294D0008394D0008B55100086951000828
:104CB00080B582B002AF1A4B1B781846FEF762FF30
:104CC000174B1B7800211846FEF7B0FF144B1B78DA
:104CD00014491846FFF7CEF800210120FDF7DAFB52
:104CE00001210320FDF7D6FB01210220FDF7D2FBB5
:104CF0000A20FCF7C3F900F063F8032000F010F974
:104D0000002300935023A0220021002000F07EF910
:104D100000210120FDF7BEFB01231846BD4680BDE2
:104D2000326A0020054C000880B400AFA02318466A
:104D3000BD465DF8047B704780B400AF5023184631
:104D4000BD465DF8047B704780B582B000AF034676
:104D5000FB7100210320FDF79DFB00210220FDF7E0
:104D600099FB074B1B78FA7911461846FEF7EAFFC4
:104D700001210220FDF78EFB00BF0837BD4680BD34
:104D8000326A002080B582B000AF0346FB7101217A
:104D90000320FDF77FFB00210220FDF77BFB074B83
:104DA0001B78FA7911461846FEF7CCFF0121022044
:104DB000FDF770FB00BF0837BD4680BD326A00209A
:104DC00080B500AF0120FFF7BFFF0A20FCF756F9BE
:104DD0001120FFF7B9FF0A20FCF750F9B120FFF7C7
:104DE000B3FF0120FFF7CEFF2C20FFF7CBFF2D20D4
:104DF000FFF7C8FFB220FFF7A7FF0120FFF7C2FFB0
:104E00002C20FFF7BFFF2D20FFF7BCFFB320FFF7DB
:104E10009BFF0120FFF7B6FF2C20FFF7B3FF2D20EB
:104E2000FFF7B0FF0120FFF7ADFF2C20FFF7AAFF2F
:104E30002D20FFF7A7FFB420FFF786FF0720FFF71D
:104E4000A1FFC020FFF780FFA220FFF79BFF0220F9
:104E5000FFF798FF8420FFF795FFC120FFF774FF4D
:104E6000C520FFF78FFFC220FFF76EFF0A20FFF774
:104E700089FF0020FFF786FFC320FFF765FF8A2028
:104E8000FFF780FF2A20FFF77DFFC420FFF75CFFBC
:104E90008A20FFF777FFEE20FFF774FFC520FFF7AA
:104EA00053FF0E20FFF76EFF2120FFF74DFF362046
:104EB000FFF74AFFC820FFF765FF3A20FFF744FFDE
:104EC0000520FFF75FFF2A20FFF73EFF0020FFF7D6
:104ED00059FF0020FFF756FF0020FFF753FF9F20E8
:104EE000FFF750FF2B20FFF72FFF0020FFF74AFFAF
:104EF0000020FFF747FF0020FFF744FF4F20FFF798
:104F000041FF1320FFF720FF0A20FCF7B7F8292004
:104F1000FFF71AFF0A20FCF7B1F800BF80BD0000C0
:104F200080B582B000AF0346FB713620FFF70CFF5F
:104F3000FB79032B1AD801A252F823F04D4F000839
:104F4000554F00085D4F0008654F0008C820FFF767
:104F500019FF0BE0A820FFF715FF07E00820FFF777
:104F600011FF03E06820FFF70DFF00BF00BF083707
:104F7000BD4680BD80B584B000AFF860B9607A608E
:104F80003B60214B1B7808211846FEF7AFFE2A2014
:104F9000FFF7DAFE0020FFF7F5FEFB68DAB2012327
:104FA000DBB21344DBB21846FFF7ECFE0020FFF73C
:104FB000E9FE7B68DAB20123DBB21344DBB21846A8
:104FC000FFF7E0FE2B20FFF7BFFE0020FFF7DAFE21
:104FD000BB68DAB21A23DBB21344DBB21846FFF720
:104FE000D1FE0020FFF7CEFE3B68DAB21A23DBB217
:104FF0001344DBB21846FFF7C5FE2C20FFF7A4FED2
:1050000000BF1037BD4680BD326A0020B0B588B001
:1050100000AFF860B9607A603B606B461D467C6803
:10502000631E7B61234618464FF000014FF00002DB
:105030004FF000030B0143EA1073020123461846A8
:105040004FF000014FF000024FF000030B0143EA64
:105050001073020123465B000733DB08DB00ADEB76
:10506000030D6B4601335B085B003B61A022FB68CC
:10507000934270DA5022BB6893426CDAFB68002BD3
:1050800005DA7A68FB6813447B600023FB60BB6829
:10509000002B05DA3A68BB6813443B600023BB6011
:1050A000FA687B681344A022934203DDA022FB68C8
:1050B000D31A7B60BA683B6813445022934203DDE5
:1050C0005022BB68D31A3B607B68002B45DD3B68F0
:1050D000002B42DDFA687B681344591EBA683B68AE
:1050E0001344013B0A46B968F868FFF743FF1D4BBC
:1050F0001B7810211846FEF7F9FD01210320FDF76A
:10510000C9F900210220FDF7C5F90023FB6108E081
:105110003B6B99B23B69FA6923F81210FB690133C2
:10512000FB61FA697B689A42F2DB0023BB6108E00D
:1051300039697A680A230020FEF752FEBB69013301
:10514000BB61BA693B689A42F2DB01210220FDF79C
:10515000A1F9AD4603E000BF00E000BFAD46203737
:10516000BD46B0BD326A002080B584B000AFF860A3
:10517000B9607A600D4B01221A700D4B1B7810211B
:105180001846FEF7B3FD01210320FDF783F9002146
:105190000220FDF77FF90023BA68F9680020FEF7C6
:1051A0001FFE012318461037BD4680BD386A002017
:1051B000326A002080B483B000AF7860044A7B6814
:1051C0001360012318460C37BD465DF8047B704719
:1051D000346A002080B586B000AFF860B96013462D
:1051E000FB71FB68002B01D103231FE0FB68002249
:1051F000C3F8B822FB680022C3F8C022FB68002273
:10520000C3F8CC22BB68002B03D0FB68BA68C3F894
:10521000B422FB68012283F89C22FB68FA791A7099
:10522000F86804F00DF80346FB75FB7D1846183747
:10523000BD4680BD80B584B000AF78603960002382
:10524000FB813B68002B01D1032316E07B683A68A1
:10525000C3F8B8227B68D3F8B832DB6A002B0BD0D6
:105260007B68D3F8B832DB6A07F10E021046984724
:1052700002467B68C3F8CC22002318461037BD468F
:1052800080BD80B582B000AF7860786804F024F803
:10529000034618460837BD4680BD80B483B000AFD2
:1052A0007860002318460C37BD465DF8047B7047D4
:1052B00080B584B000AF78600B46FB700323FB73AE
:1052C0007B68D3F8B832002B09D07B68D3F8B832AA
:1052D0001B68FA781146786898470346FB73FB7B96
:1052E00018461037BD4680BD80B582B000AF7860EB
:1052F0000B46FB707B68D3F8B832002B07D07B6875
:10530000D3F8B8325B68FA7811467868984700237A
:1053100018460837BD4680BD80B584B000AF7860C0
:1053200039607B6803F2AA233968184600F090FFC1
:105330007B680122C3F894227B68B3F8B0321A4626
:105340007B68C3F898227B6893F8AA3203F01F03A6
:10535000022B1AD0022B22D8002B02D0012B0AD00C
:105360001DE07B6803F2AA231946786800F062FA10
:105370000346FB7320E07B6803F2AA231946786892
:1053800000F0C6FA0346FB7316E07B6803F2AA231B
:105390001946786800F005FB0346FB730CE07B6858
:1053A00093F8AA3223F07F03DBB21946786804F041
:1053B00012F80346FB7300BFFB7B18461037BD464F
:1053C00080BD80B586B000AFF8600B467A60FB7296
:1053D000FB7A002B38D1FB6803F5AA733B61FB68AD
:1053E000D3F89432032B4AD13B699A683B69DB6856
:1053F0009A4213D93B699A683B69DB68D21A3B69C8
:105400009A603B69DA683B699B68934228BF134600
:105410001A467968F86801F00FF830E0FB6893F8F5
:105420009C32DBB2032B0BD1FB68D3F8B8321B697B
:10543000002B05D0FB68D3F8B8321B69F868984791
:10544000F86801F00AF81AE0FB6893F89C32DBB2C6
:10545000032B14D1FB68D3F8B8329B69002B0ED014
:10546000FB68D3F8B8329B69FA7A1146F868984716
:105470000346FB75FB7D002B01D0FB7D00E0002384
:1054800018461837BD4680BD80B586B000AFF860BD
:105490000B467A60FB72FB7A002B6BD1FB681433EE
:1054A0003B61FB68D3F89432022B56D13B699A6872
:1054B0003B69DB689A4214D93B699A683B69DB68AF
:1054C000D21A3B699A603B699B681A467968F8680A
:1054D00000F084FF002300220021F86804F025F882
:1054E0003BE03B69DA683B699B689A421CD13B69A7
:1054F0005A683B69DB689A4216D33B695A68FB6875
:10550000D3F898329A420FD200220021F86800F0B6
:1055100065FFFB680022C3F89822002300220021C7
:10552000F86804F002F818E0FB6893F89C32DBB2EC
:10553000032B0BD1FB68D3F8B832DB68002B05D006
:10554000FB68D3F8B832DB68F86898478021F868C0
:1055500003F041FFF86800F093FFFB6893F8A03276
:10556000012B22D1F868FFF798FEFB68002283F830
:10557000A0221AE0FB6893F89C32DBB2032B14D113
:10558000FB68D3F8B8325B69002B0ED0FB68D3F808
:10559000B8325B69FA7A1146F86898470346FB759A
:1055A000FB7D002B01D0FB7D00E00023184618375F
:1055B000BD4680BD80B582B000AF78607B680122B7
:1055C00083F89C227B680022C3F894227B68002227
:1055D0005A607B680022C3F8A4227B68D3F8B832F3
:1055E000002B01D103232FE07B68D3F8BC32002BC2
:1055F0000FD07B68D3F8B8325B68002B09D07B688A
:10560000D3F8B8325B687A685268D2B211467868CB
:105610009847402300220021786803F078FE7B68D9
:105620000122A3F864217B684022C3F86021402353
:1056300000228021786803F06AFE7B6801229A8448
:105640007B6840221A62002318460837BD4680BD99
:1056500080B483B000AF78600B46FB707B68FA784B
:105660001A74002318460C37BD465DF8047B70475A
:1056700080B483B000AF78607B6893F89C32DAB274
:105680007B6883F89D227B68042283F89C22002398
:1056900018460C37BD465DF8047B704780B483B074
:1056A00000AF78607B6893F89C32DBB2042B06D1A4
:1056B0007B6893F89D32DAB27B6883F89C220023E2
:1056C00018460C37BD465DF8047B704780B582B044
:1056D00000AF78607B68D3F8B832002B01D1032388
:1056E00012E07B6893F89C32DBB2032B0BD17B6812
:1056F000D3F8B832DB69002B05D07B68D3F8B83219
:10570000DB6978689847002318460837BD4680BD96
:1057100080B582B000AF78600B46FB707B68D3F831
:10572000B832002B01D1032314E07B6893F89C323C
:10573000DBB2032B0DD17B68D3F8B8321B6A002B88
:1057400007D07B68D3F8B8321B6AFA7811467868BC
:105750009847002318460837BD4680BD80B582B003
:1057600000AF78600B46FB707B68D3F8B832002B33
:1057700001D1032314E07B6893F89C32DBB2032B46
:105780000DD17B68D3F8B8325B6A002B07D07B68F9
:10579000D3F8B8325B6AFA781146786898470023E4
:1057A00018460837BD4680BD80B483B000AF78602E
:1057B000002318460C37BD465DF8047B704780B562
:1057C00082B000AF78607B68012283F89C227B68FE
:1057D000D3F8B832002B09D07B68D3F8B8325B68B5
:1057E0007A685268D2B21146786898470023184602
:1057F0000837BD4680BD80B487B000AF78607B6855
:105800007B617B691B787B827B6901337B617B6970
:105810001B783B823B8A1B021AB2B7F91230134342
:105820001BB2FB81FB8918461C37BD465DF8047B23
:105830007047000080B584B000AF78603960002305
:10584000FB733B681B7803F06003402B05D0402BB3
:1058500053D8002B0BD0202B4FD17B68D3F8B83214
:105860009B683968786898470346FB734AE03B6851
:105870005B78092B3BD801A252F823F0D1580008DD
:10588000E5580008EF580008DB580008EF580008FA
:10589000AF580008A5580008EF580008C75800087E
:1058A000B95800083968786800F0DEF924E03968F2
:1058B000786800F043FB1FE03968786800F082FBED
:1058C0000346FB7318E03968786800F021FC13E0A8
:1058D0003968786800F052FC0EE03968786800F0AA
:1058E00081FC09E03968786800F090FC04E03968D0
:1058F000786800F0E7FC00BF04E03968786800F0E1
:10590000E1FC00BFFB7B18461037BD4680BD00BFE1
:1059100080B584B000AF786039600023FB733B68CA
:105920001B7803F06003402B05D0402B2FD8002BB1
:1059300001D0202B2BD17B6893F89C32DBB2013B4A
:10594000022B1DD83B689B88DBB2012B13D87B68E8
:10595000D3F8B8329B683968786898470346FB7378
:105960003B68DB88002B10D1FB7B002B0DD17868C6
:1059700000F073FD09E03968786800F0A3FC04E0EA
:105980003968786800F09EFC00E000BF04E03968E8
:10599000786800F097FC00BFFB7B18461037BD46C7
:1059A00080BD80B584B000AF786039600023FB73A0
:1059B0003B689B88BB733B681B7803F06003402BFC
:1059C00007D0402B00F24581002B0CD0202B40F05B
:1059D00040817B68D3F8B8329B683968786898470B
:1059E0000346FB733AE13B685B78032B07D0032B3C
:1059F00000F32981002B7FD0012B3CD023E17B6871
:105A000093F89C32DBB2022B02D0032B16D02CE091
:105A1000BB7B002B0DD0BB7B802B0AD0BB7B1946F8
:105A2000786803F0D8FC8021786803F0D4FC00BFCC
:105A300020E03968786800F045FC1BE03B685B8833
:105A4000002B0ED1BB7B002B0BD0BB7B802B08D057
:105A50003B68DB88002B04D1BB7B1946786803F0D8
:105A6000BAFC786800F0F9FC04E03968786800F066
:105A700029FC00BFECE07B6893F89C32DBB2022B80
:105A800002D0032B16D030E0BB7B002B0DD0BB7BAC
:105A9000802B0AD0BB7B1946786803F09CFC8021E0
:105AA000786803F098FC00BF25E03968786800F05A
:105AB00009FC20E03B685B88002B1BD1BB7B03F01B
:105AC0007F03002B04D0BB7B1946786803F0A2FC4F
:105AD000786800F0C2FC7B68D3F8B8329B683968FC
